{
  "contractName": "Voting",
  "abi": [
    {
      "inputs": [],
      "stateMutability": "nonpayable",
      "type": "constructor"
    },
    {
      "anonymous": false,
      "inputs": [
        {
          "indexed": true,
          "internalType": "uint256",
          "name": "candidateId",
          "type": "uint256"
        }
      ],
      "name": "VotedEvent",
      "type": "event"
    },
    {
      "inputs": [
        {
          "internalType": "uint256",
          "name": "",
          "type": "uint256"
        }
      ],
      "name": "candidates",
      "outputs": [
        {
          "internalType": "uint256",
          "name": "id",
          "type": "uint256"
        },
        {
          "internalType": "string",
          "name": "name",
          "type": "string"
        },
        {
          "internalType": "uint256",
          "name": "voteCount",
          "type": "uint256"
        }
      ],
      "stateMutability": "view",
      "type": "function",
      "constant": true
    },
    {
      "inputs": [],
      "name": "candidatesCount",
      "outputs": [
        {
          "internalType": "uint256",
          "name": "",
          "type": "uint256"
        }
      ],
      "stateMutability": "view",
      "type": "function",
      "constant": true
    },
    {
      "inputs": [
        {
          "internalType": "uint256",
          "name": "_candidateId",
          "type": "uint256"
        }
      ],
      "name": "vote",
      "outputs": [],
      "stateMutability": "nonpayable",
      "type": "function"
    },
    {
      "inputs": [
        {
          "internalType": "string",
          "name": "secret",
          "type": "string"
        }
      ],
      "name": "resetVotes",
      "outputs": [],
      "stateMutability": "nonpayable",
      "type": "function"
    }
  ],
  "bytecode": "0x60806040523480156200001157600080fd5b50620000586040518060400160405280601681526020017f437970727573205765737420556e6976657273697479000000000000000000008152506200059060201b60201c565b6200009e6040518060400160405280601d81526020017f416d65726963616e20556e6976657273697479206f66204379707275730000008152506200059060201b60201c565b620000c86040518060600160405280602181526020016200100c602191396200059060201b60201c565b620000f26040518060600160405280602c81526020016200102d602c91396200059060201b60201c565b620001386040518060400160405280602081526020017f4174617475726b205465616368657220547261696e696e672041636164656d798152506200059060201b60201c565b6200017e6040518060400160405280601c81526020017f426168636573656869722043797072757320556e6976657273697479000000008152506200059060201b60201c565b620001c46040518060400160405280601981526020017f556e6976657273697479206f6620436974792049736c616e64000000000000008152506200059060201b60201c565b620001ee6040518060600160405280602c8152602001620010da602c91396200059060201b60201c565b620002346040518060400160405280601f81526020017f43797072757320496e7465726e6174696f6e616c20556e6976657273697479008152506200059060201b60201c565b6200027a6040518060400160405280601981526020017f43797072757320536369656e636520556e6976657273697479000000000000008152506200059060201b60201c565b620002a460405180606001604052806021815260200162000feb602191396200059060201b60201c565b620002ea6040518060400160405280602081526020017f4561737465726e204d65646974657272616e65616e20556e69766572736974798152506200059060201b60201c565b620003306040518060400160405280601e81526020017f4575726f7065616e204c65616465727368697020556e697665727369747900008152506200059060201b60201c565b620003766040518060400160405280601c81526020017f4575726f7065616e20556e6976657273697479206f66204c65666b65000000008152506200059060201b60201c565b620003bc6040518060400160405280601e81526020017f46696e616c20496e7465726e6174696f6e616c20556e697665727369747900008152506200059060201b60201c565b620004026040518060400160405280601981526020017f4769726e6520416d65726963616e20556e6976657273697479000000000000008152506200059060201b60201c565b6200042c60405180606001604052806028815260200162001059602891396200059060201b60201c565b620004566040518060600160405280603c81526020016200115f603c91396200059060201b60201c565b6200049c6040518060400160405280601581526020017f556e6976657273697479206f66204b7972656e696100000000000000000000008152506200059060201b60201c565b620004c6604051806060016040528060248152602001620010b6602491396200059060201b60201c565b620004f060405180606001604052806037815260200162001128603791396200059060201b60201c565b620005366040518060400160405280601481526020017f4e656172204561737420556e69766572736974790000000000000000000000008152506200059060201b60201c565b6200056060405180606001604052806035815260200162001081603591396200059060201b60201c565b6200058a60405180606001604052806022815260200162001106602291396200059060201b60201c565b620007b1565b60016000815480929190620005a59062000705565b919050555060405180606001604052806001548152602001828152602001600081525060008060015481526020019081526020016000206000820151816000015560208201518160010190805190602001906200060492919062000615565b506040820151816002015590505050565b8280546200062390620006cf565b90600052602060002090601f01602090048101928262000647576000855562000693565b82601f106200066257805160ff191683800117855562000693565b8280016001018555821562000693579182015b828111156200069257825182559160200191906001019062000675565b5b509050620006a29190620006a6565b5090565b5b80821115620006c1576000816000905550600101620006a7565b5090565b6000819050919050565b60006002820490506001821680620006e857607f821691505b60208210811415620006ff57620006fe62000782565b5b50919050565b60006200071282620006c5565b91507fffffffffffffffffffffffffffffffffffffffffffffffffffffffffffffffff82141562000748576200074762000753565b5b600182019050919050565b7f4e487b7100000000000000000000000000000000000000000000000000000000600052601160045260246000fd5b7f4e487b7100000000000000000000000000000000000000000000000000000000600052602260045260246000fd5b61082a80620007c16000396000f3fe608060405234801561001057600080fd5b506004361061004c5760003560e01c80630121b93f146100515780632d35a8a21461006d5780633477ee2e1461008b578063f3fa4226146100bd575b600080fd5b61006b600480360381019061006691906103c9565b6100d9565b005b610075610185565b6040516100829190610597565b60405180910390f35b6100a560048036038101906100a091906103c9565b61018b565b6040516100b4939291906105b2565b60405180910390f35b6100d760048036038101906100d29190610388565b61023d565b005b6000811180156100eb57506001548111155b61012a576040517f08c379a000000000000000000000000000000000000000000000000000000000815260040161012190610577565b60405180910390fd5b6000808281526020019081526020016000206002016000815480929190610150906106f6565b9190505550807fe447c5464cb203c1da94b4db8588d3cbf313ce4a489122f6b88e87f465b2810e60405160405180910390a250565b60015481565b60006020528060005260406000206000915090508060000154908060010180546101b4906106c4565b80601f01602080910402602001604051908101604052809291908181526020018280546101e0906106c4565b801561022d5780601f106102025761010080835404028352916020019161022d565b820191906000526020600020905b81548152906001019060200180831161021057829003601f168201915b5050505050908060020154905083565b60405160200161024c90610542565b6040516020818303038152906040528051906020012081604051602001610273919061052b565b60405160208183030381529060405280519060200120146102c9576040517f08c379a00000000000000000000000000000000000000000000000000000000081526004016102c090610557565b60405180910390fd5b6000600190505b60015481116103075760008060008381526020019081526020016000206002018190555080806102ff906106f6565b9150506102d0565b5050565b600061031e61031984610621565b6105f0565b90508281526020810184848401111561033657600080fd5b610341848285610682565b509392505050565b600082601f83011261035a57600080fd5b813561036a84826020860161030b565b91505092915050565b600081359050610382816107dd565b92915050565b60006020828403121561039a57600080fd5b600082013567ffffffffffffffff8111156103b457600080fd5b6103c084828501610349565b91505092915050565b6000602082840312156103db57600080fd5b60006103e984828501610373565b91505092915050565b60006103fd82610651565b610407818561065c565b9350610417818560208601610691565b610420816107cc565b840191505092915050565b600061043682610651565b610440818561066d565b9350610450818560208601610691565b80840191505092915050565b600061046960088361066d565b91507f6d656f77303730390000000000000000000000000000000000000000000000006000830152600882019050919050565b60006104a960148361065c565b91507f496e76616c69642073656372657420776f72642e0000000000000000000000006000830152602082019050919050565b60006104e960128361065c565b91507f496e76616c69642063616e6469646174652e00000000000000000000000000006000830152602082019050919050565b61052581610678565b82525050565b6000610537828461042b565b915081905092915050565b600061054d8261045c565b9150819050919050565b600060208201905081810360008301526105708161049c565b9050919050565b60006020820190508181036000830152610590816104dc565b9050919050565b60006020820190506105ac600083018461051c565b92915050565b60006060820190506105c7600083018661051c565b81810360208301526105d981856103f2565b90506105e8604083018461051c565b949350505050565b6000604051905081810181811067ffffffffffffffff821117156106175761061661079d565b5b8060405250919050565b600067ffffffffffffffff82111561063c5761063b61079d565b5b601f19601f8301169050602081019050919050565b600081519050919050565b600082825260208201905092915050565b600081905092915050565b6000819050919050565b82818337600083830152505050565b60005b838110156106af578082015181840152602081019050610694565b838111156106be576000848401525b50505050565b600060028204905060018216806106dc57607f821691505b602082108114156106f0576106ef61076e565b5b50919050565b600061070182610678565b91507fffffffffffffffffffffffffffffffffffffffffffffffffffffffffffffffff8214156107345761073361073f565b5b600182019050919050565b7f4e487b7100000000000000000000000000000000000000000000000000000000600052601160045260246000fd5b7f4e487b7100000000000000000000000000000000000000000000000000000000600052602260045260246000fd5b7f4e487b7100000000000000000000000000000000000000000000000000000000600052604160045260246000fd5b6000601f19601f8301169050919050565b6107e681610678565b81146107f157600080fd5b5056fea2646970667358221220ff0c17251d0a4658eef37ee0ce455e17ef50f9cc25e8b3c51d71449fff29053864736f6c6343000800003343797072757320536f6369616c20536369656e63657320556e6976657273697479416e61646f6c7520556e6976657273697479204e69636f7369612043616d70757341726b696e20556e6976657273697479206f66204372656174697665204172747320616e642044657369676e496e7465726e6174696f6e616c20427573696e657373204d616e6167656d656e74205363686f6f6c4e65746b656e74204d65646974657272616e65616e20526573656172636820616e6420536369656e636520556e6976657273697479556e6976657273697479206f66204d65646974657272616e65616e204b61727061736961437970727573204865616c746820616e6420536f6369616c20536369656e63657320556e6976657273697479556e6976657273697479206f66207468652057657374206f662053636f746c616e644d6964646c65204561737420546563686e6963616c20556e6976657273697479204e6f72746865726e204379707275732043616d707573497374616e62756c20546563686e6963616c20556e69766572736974792054524e4320456475636174696f6e2d52657365617263682043616d707573",
  "immutableReferences": {},
  "source": "// SPDX-License-Identifier: MIT\r\npragma solidity ^0.8.0;\r\n\r\ncontract Voting {\r\n    struct Candidate {\r\n        uint id;\r\n        string name;\r\n        uint voteCount;\r\n    }\r\n\r\n    mapping(uint => Candidate) public candidates;\r\n    uint public candidatesCount;\r\n\r\n    event VotedEvent(uint indexed candidateId);\r\n\r\n    constructor() {\r\n        addCandidate(\"Cyprus West University\");\r\n        addCandidate(\"American University of Cyprus\");\r\n        addCandidate(\"Anadolu University Nicosia Campus\");\r\n        addCandidate(\"Arkin University of Creative Arts and Design\");\r\n        addCandidate(\"Ataturk Teacher Training Academy\");\r\n        addCandidate(\"Bahcesehir Cyprus University\");\r\n        addCandidate(\"University of City Island\");\r\n        addCandidate(\"Cyprus Health and Social Sciences University\");\r\n        addCandidate(\"Cyprus International University\");\r\n        addCandidate(\"Cyprus Science University\");\r\n        addCandidate(\"Cyprus Social Sciences University\");\r\n        addCandidate(\"Eastern Mediterranean University\");\r\n        addCandidate(\"European Leadership University\");\r\n        addCandidate(\"European University of Lefke\");\r\n        addCandidate(\"Final International University\");\r\n        addCandidate(\"Girne American University\");\r\n        addCandidate(\"International Business Management School\");\r\n        addCandidate(\"Istanbul Technical University TRNC Education-Research Campus\");\r\n        addCandidate(\"University of Kyrenia\");\r\n        addCandidate(\"University of Mediterranean Karpasia\");\r\n        addCandidate(\"Middle East Technical University Northern Cyprus Campus\");\r\n        addCandidate(\"Near East University\");\r\n        addCandidate(\"Netkent Mediterranean Research and Science University\");\r\n        addCandidate(\"University of the West of Scotland\");\r\n    }\r\n\r\n    function addCandidate(string memory _name) private {\r\n        candidatesCount++;\r\n        candidates[candidatesCount] = Candidate(candidatesCount, _name, 0);\r\n    }\r\n\r\n    function vote(uint _candidateId) public {\r\n        require(_candidateId > 0 && _candidateId <= candidatesCount, \"Invalid candidate.\");\r\n\r\n        candidates[_candidateId].voteCount++;\r\n\r\n        emit VotedEvent(_candidateId);\r\n    }\r\n\r\n    function resetVotes(string memory secret) public {\r\n        require(keccak256(abi.encodePacked(secret)) == keccak256(abi.encodePacked(\"meow0709\")), \"Invalid secret word.\");\r\n        for (uint i = 1; i <= candidatesCount; i++) {\r\n            candidates[i].voteCount = 0;\r\n        }\r\n    }\r\n}",
  "sourcePath": "C:\\Users\\Al-Pacino\\voting-system\\contracts\\Voting.sol",
  "compiler": {
    "name": "solc",
    "version": "0.8.0+commit.c7dfd78e.Emscripten.clang"
  },
  "schemaVersion": "3.4.16",
  "updatedAt": "2024-12-05T00:14:13.495Z",
  "networkType": "ethereum",
  "devdoc": {
    "kind": "dev",
    "methods": {},
    "version": 1
  },
  "userdoc": {
    "kind": "user",
    "methods": {},
    "version": 1
  }
}