{
  "contractName": "Voting",
  "abi": [
    {
      "inputs": [],
      "stateMutability": "nonpayable",
      "type": "constructor"
    },
    {
      "anonymous": false,
      "inputs": [
        {
          "indexed": true,
          "internalType": "uint256",
          "name": "candidateId",
          "type": "uint256"
        }
      ],
      "name": "VotedEvent",
      "type": "event"
    },
    {
      "inputs": [
        {
          "internalType": "uint256",
          "name": "",
          "type": "uint256"
        }
      ],
      "name": "candidates",
      "outputs": [
        {
          "internalType": "uint256",
          "name": "id",
          "type": "uint256"
        },
        {
          "internalType": "string",
          "name": "name",
          "type": "string"
        },
        {
          "internalType": "uint256",
          "name": "voteCount",
          "type": "uint256"
        }
      ],
      "stateMutability": "view",
      "type": "function",
      "constant": true
    },
    {
      "inputs": [],
      "name": "candidatesCount",
      "outputs": [
        {
          "internalType": "uint256",
          "name": "",
          "type": "uint256"
        }
      ],
      "stateMutability": "view",
      "type": "function",
      "constant": true
    },
    {
      "inputs": [
        {
          "internalType": "uint256",
          "name": "_candidateId",
          "type": "uint256"
        }
      ],
      "name": "vote",
      "outputs": [],
      "stateMutability": "nonpayable",
      "type": "function"
    }
  ],
  "bytecode": "0x608060405234801561001057600080fd5b506100556040518060400160405280600b81526020017f43616e646964617465203100000000000000000000000000000000000000000081525061009e60201b60201c565b6100996040518060400160405280600b81526020017f43616e646964617465203200000000000000000000000000000000000000000081525061009e60201b60201c565b6102a5565b600160008154809291906100b1906101fe565b9190505550604051806060016040528060015481526020018281526020016000815250600080600154815260200190815260200160002060008201518160000155602082015181600101908051906020019061010e92919061011f565b506040820151816002015590505050565b82805461012b906101cc565b90600052602060002090601f01602090048101928261014d5760008555610194565b82601f1061016657805160ff1916838001178555610194565b82800160010185558215610194579182015b82811115610193578251825591602001919060010190610178565b5b5090506101a191906101a5565b5090565b5b808211156101be5760008160009055506001016101a6565b5090565b6000819050919050565b600060028204905060018216806101e457607f821691505b602082108114156101f8576101f7610276565b5b50919050565b6000610209826101c2565b91507fffffffffffffffffffffffffffffffffffffffffffffffffffffffffffffffff82141561023c5761023b610247565b5b600182019050919050565b7f4e487b7100000000000000000000000000000000000000000000000000000000600052601160045260246000fd5b7f4e487b7100000000000000000000000000000000000000000000000000000000600052602260045260246000fd5b6104e5806102b46000396000f3fe608060405234801561001057600080fd5b50600436106100415760003560e01c80630121b93f146100465780632d35a8a2146100625780633477ee2e14610080575b600080fd5b610060600480360381019061005b919061022b565b6100b2565b005b61006a61015e565b60405161007791906102fc565b60405180910390f35b61009a6004803603810190610095919061022b565b610164565b6040516100a993929190610317565b60405180910390f35b6000811180156100c457506001548111155b610103576040517f08c379a00000000000000000000000000000000000000000000000000000000081526004016100fa906102dc565b60405180910390fd5b6000808281526020019081526020016000206002016000815480929190610129906103e0565b9190505550807fe447c5464cb203c1da94b4db8588d3cbf313ce4a489122f6b88e87f465b2810e60405160405180910390a250565b60015481565b600060205280600052604060002060009150905080600001549080600101805461018d906103ae565b80601f01602080910402602001604051908101604052809291908181526020018280546101b9906103ae565b80156102065780601f106101db57610100808354040283529160200191610206565b820191906000526020600020905b8154815290600101906020018083116101e957829003601f168201915b5050505050908060020154905083565b60008135905061022581610498565b92915050565b60006020828403121561023d57600080fd5b600061024b84828501610216565b91505092915050565b600061025f82610355565b6102698185610360565b935061027981856020860161037b565b61028281610487565b840191505092915050565b600061029a601283610360565b91507f496e76616c69642063616e6469646174652e00000000000000000000000000006000830152602082019050919050565b6102d681610371565b82525050565b600060208201905081810360008301526102f58161028d565b9050919050565b600060208201905061031160008301846102cd565b92915050565b600060608201905061032c60008301866102cd565b818103602083015261033e8185610254565b905061034d60408301846102cd565b949350505050565b600081519050919050565b600082825260208201905092915050565b6000819050919050565b60005b8381101561039957808201518184015260208101905061037e565b838111156103a8576000848401525b50505050565b600060028204905060018216806103c657607f821691505b602082108114156103da576103d9610458565b5b50919050565b60006103eb82610371565b91507fffffffffffffffffffffffffffffffffffffffffffffffffffffffffffffffff82141561041e5761041d610429565b5b600182019050919050565b7f4e487b7100000000000000000000000000000000000000000000000000000000600052601160045260246000fd5b7f4e487b7100000000000000000000000000000000000000000000000000000000600052602260045260246000fd5b6000601f19601f8301169050919050565b6104a181610371565b81146104ac57600080fd5b5056fea264697066735822122027b5063aa4dc6c591c3fbd7482f7bd1a72b18b8404a0db751dfcfb07b061500164736f6c63430008000033",
  "immutableReferences": {},
  "source": "// SPDX-License-Identifier: MIT\r\npragma solidity ^0.8.0;\r\n\r\ncontract Voting {\r\n    struct Candidate {\r\n        uint id;\r\n        string name;\r\n        uint voteCount;\r\n    }\r\n\r\n    mapping(uint => Candidate) public candidates;\r\n    uint public candidatesCount;\r\n\r\n    event VotedEvent(uint indexed candidateId);\r\n\r\n    constructor() {\r\n        addCandidate(\"Candidate 1\");\r\n        addCandidate(\"Candidate 2\");\r\n    }\r\n\r\n    function addCandidate(string memory _name) private {\r\n        candidatesCount++;\r\n        candidates[candidatesCount] = Candidate(candidatesCount, _name, 0);\r\n    }\r\n\r\n    function vote(uint _candidateId) public {\r\n        require(_candidateId > 0 && _candidateId <= candidatesCount, \"Invalid candidate.\");\r\n\r\n        candidates[_candidateId].voteCount++;\r\n\r\n        emit VotedEvent(_candidateId);\r\n    }\r\n}",
  "sourcePath": "C:\\Users\\Al-Pacino\\voting-system\\contracts\\Voting.sol",
  "compiler": {
    "name": "solc",
    "version": "0.8.0+commit.c7dfd78e.Emscripten.clang"
  },
  "schemaVersion": "3.4.16",
  "updatedAt": "2024-11-19T13:18:14.248Z",
  "networkType": "ethereum",
  "devdoc": {
    "kind": "dev",
    "methods": {},
    "version": 1
  },
  "userdoc": {
    "kind": "user",
    "methods": {},
    "version": 1
  }
}